{
  "_format": "hh-sol-artifact-1",
  "contractName": "ConfidentialMines",
  "sourceName": "contracts/ConfidentialMines.sol",
  "abi": [
    {
      "anonymous": false,
      "inputs": [
        {
          "indexed": true,
          "internalType": "uint256",
          "name": "gameId",
          "type": "uint256"
        },
        {
          "indexed": true,
          "internalType": "address",
          "name": "player",
          "type": "address"
        },
        {
          "indexed": false,
          "internalType": "uint8",
          "name": "boardSize",
          "type": "uint8"
        }
      ],
      "name": "GameCreated",
      "type": "event"
    },
    {
      "anonymous": false,
      "inputs": [
        {
          "indexed": true,
          "internalType": "uint256",
          "name": "gameId",
          "type": "uint256"
        },
        {
          "indexed": false,
          "internalType": "euint32",
          "name": "finalMultiplier",
          "type": "bytes32"
        },
        {
          "indexed": false,
          "internalType": "enum ConfidentialMines.State",
          "name": "state",
          "type": "uint8"
        }
      ],
      "name": "GameEnded",
      "type": "event"
    },
    {
      "anonymous": false,
      "inputs": [
        {
          "indexed": true,
          "internalType": "uint256",
          "name": "gameId",
          "type": "uint256"
        },
        {
          "indexed": false,
          "internalType": "uint32[]",
          "name": "plainMap",
          "type": "uint32[]"
        }
      ],
      "name": "GameRevealed",
      "type": "event"
    },
    {
      "anonymous": false,
      "inputs": [
        {
          "indexed": true,
          "internalType": "uint256",
          "name": "gameId",
          "type": "uint256"
        },
        {
          "indexed": false,
          "internalType": "uint256",
          "name": "seed",
          "type": "uint256"
        }
      ],
      "name": "SeedRevealed",
      "type": "event"
    },
    {
      "anonymous": false,
      "inputs": [
        {
          "indexed": true,
          "internalType": "uint256",
          "name": "gameId",
          "type": "uint256"
        },
        {
          "indexed": false,
          "internalType": "uint256",
          "name": "index",
          "type": "uint256"
        },
        {
          "indexed": false,
          "internalType": "ebool",
          "name": "isBomb",
          "type": "bytes32"
        },
        {
          "indexed": false,
          "internalType": "uint32",
          "name": "openedCount",
          "type": "uint32"
        },
        {
          "indexed": false,
          "internalType": "euint32",
          "name": "newMultiplier",
          "type": "bytes32"
        }
      ],
      "name": "TilePicked",
      "type": "event"
    },
    {
      "inputs": [],
      "name": "MULTIPLIER_BASE",
      "outputs": [
        {
          "internalType": "uint32",
          "name": "",
          "type": "uint32"
        }
      ],
      "stateMutability": "view",
      "type": "function"
    },
    {
      "inputs": [],
      "name": "MULTIPLIER_STEP",
      "outputs": [
        {
          "internalType": "uint32",
          "name": "",
          "type": "uint32"
        }
      ],
      "stateMutability": "view",
      "type": "function"
    },
    {
      "inputs": [
        {
          "internalType": "uint256",
          "name": "gameId",
          "type": "uint256"
        }
      ],
      "name": "cashOut",
      "outputs": [],
      "stateMutability": "nonpayable",
      "type": "function"
    },
    {
      "inputs": [
        {
          "internalType": "externalEuint32[]",
          "name": "encryptedTiles",
          "type": "bytes32[]"
        },
        {
          "internalType": "bytes",
          "name": "proof",
          "type": "bytes"
        },
        {
          "internalType": "bytes32",
          "name": "commitHash",
          "type": "bytes32"
        },
        {
          "internalType": "uint8",
          "name": "boardSize",
          "type": "uint8"
        }
      ],
      "name": "createGame",
      "outputs": [
        {
          "internalType": "uint256",
          "name": "gameId",
          "type": "uint256"
        }
      ],
      "stateMutability": "nonpayable",
      "type": "function"
    },
    {
      "inputs": [
        {
          "internalType": "uint256",
          "name": "gameId",
          "type": "uint256"
        }
      ],
      "name": "endAsBoom",
      "outputs": [],
      "stateMutability": "nonpayable",
      "type": "function"
    },
    {
      "inputs": [],
      "name": "gameCounter",
      "outputs": [
        {
          "internalType": "uint256",
          "name": "",
          "type": "uint256"
        }
      ],
      "stateMutability": "view",
      "type": "function"
    },
    {
      "inputs": [
        {
          "internalType": "uint256",
          "name": "",
          "type": "uint256"
        }
      ],
      "name": "games",
      "outputs": [
        {
          "internalType": "address",
          "name": "player",
          "type": "address"
        },
        {
          "internalType": "uint8",
          "name": "boardSize",
          "type": "uint8"
        },
        {
          "internalType": "bytes32",
          "name": "commitHash",
          "type": "bytes32"
        },
        {
          "internalType": "uint32",
          "name": "openedCount",
          "type": "uint32"
        },
        {
          "internalType": "euint32",
          "name": "multiplier",
          "type": "bytes32"
        },
        {
          "internalType": "enum ConfidentialMines.State",
          "name": "state",
          "type": "uint8"
        },
        {
          "internalType": "bool",
          "name": "seedRevealed",
          "type": "bool"
        }
      ],
      "stateMutability": "view",
      "type": "function"
    },
    {
      "inputs": [
        {
          "internalType": "uint256",
          "name": "gameId",
          "type": "uint256"
        }
      ],
      "name": "getBoardSize",
      "outputs": [
        {
          "internalType": "uint8",
          "name": "",
          "type": "uint8"
        }
      ],
      "stateMutability": "view",
      "type": "function"
    },
    {
      "inputs": [
        {
          "internalType": "uint256",
          "name": "gameId",
          "type": "uint256"
        }
      ],
      "name": "getCommit",
      "outputs": [
        {
          "internalType": "bytes32",
          "name": "",
          "type": "bytes32"
        }
      ],
      "stateMutability": "view",
      "type": "function"
    },
    {
      "inputs": [
        {
          "internalType": "uint256",
          "name": "gameId",
          "type": "uint256"
        }
      ],
      "name": "getMultiplier",
      "outputs": [
        {
          "internalType": "euint32",
          "name": "",
          "type": "bytes32"
        }
      ],
      "stateMutability": "view",
      "type": "function"
    },
    {
      "inputs": [
        {
          "internalType": "uint256",
          "name": "gameId",
          "type": "uint256"
        }
      ],
      "name": "getOpenedCount",
      "outputs": [
        {
          "internalType": "uint32",
          "name": "",
          "type": "uint32"
        }
      ],
      "stateMutability": "view",
      "type": "function"
    },
    {
      "inputs": [
        {
          "internalType": "uint256",
          "name": "gameId",
          "type": "uint256"
        }
      ],
      "name": "getState",
      "outputs": [
        {
          "internalType": "enum ConfidentialMines.State",
          "name": "",
          "type": "uint8"
        }
      ],
      "stateMutability": "view",
      "type": "function"
    },
    {
      "inputs": [
        {
          "internalType": "uint256",
          "name": "gameId",
          "type": "uint256"
        }
      ],
      "name": "isSeedRevealed",
      "outputs": [
        {
          "internalType": "bool",
          "name": "",
          "type": "bool"
        }
      ],
      "stateMutability": "view",
      "type": "function"
    },
    {
      "inputs": [
        {
          "internalType": "uint256",
          "name": "gameId",
          "type": "uint256"
        },
        {
          "internalType": "uint256",
          "name": "index",
          "type": "uint256"
        }
      ],
      "name": "pickTile",
      "outputs": [],
      "stateMutability": "nonpayable",
      "type": "function"
    },
    {
      "inputs": [],
      "name": "protocolId",
      "outputs": [
        {
          "internalType": "uint256",
          "name": "",
          "type": "uint256"
        }
      ],
      "stateMutability": "pure",
      "type": "function"
    },
    {
      "inputs": [
        {
          "internalType": "uint256",
          "name": "gameId",
          "type": "uint256"
        },
        {
          "internalType": "uint32[]",
          "name": "plainMap",
          "type": "uint32[]"
        }
      ],
      "name": "revealGame",
      "outputs": [],
      "stateMutability": "nonpayable",
      "type": "function"
    },
    {
      "inputs": [
        {
          "internalType": "uint256",
          "name": "gameId",
          "type": "uint256"
        },
        {
          "internalType": "uint256",
          "name": "seed",
          "type": "uint256"
        }
      ],
      "name": "revealSeed",
      "outputs": [],
      "stateMutability": "nonpayable",
      "type": "function"
    }
  ],
  "bytecode": "0x608060405234801561000f575f5ffd5b5061018a6100ae604080516080810182525f80825260208201819052918101829052606081019190915250604080516080810182527350157cffd6bbfa2dece204a89ec419c23ef5755d815273cd3ab3bd6bcc0c0bf3e27912a92043e817b1cf69602082015273a02cda4ca3a71d7c46997716f4283aa851c2881291810191909152731364cbbf2cdf5032c47d8226a6f6fbd2afcdacac606082015290565b80517f9e7b61f58c47dc699ac88507c4f5bb9f121c03808c5676a8078fe583e464970080546001600160a01b03199081166001600160a01b039384161790915560208301517f9e7b61f58c47dc699ac88507c4f5bb9f121c03808c5676a8078fe583e46497018054831691841691909117905560408301517f9e7b61f58c47dc699ac88507c4f5bb9f121c03808c5676a8078fe583e46497028054831691841691909117905560608301517f9e7b61f58c47dc699ac88507c4f5bb9f121c03808c5676a8078fe583e46497038054909216921691909117905550565b61163d806101975f395ff3fe608060405234801561000f575f5ffd5b5060043610610115575f3560e01c80637b4936c4116100ad578063cb94d49e1161007d578063da1f12ab11610063578063da1f12ab14610331578063f97136af14610339578063fcdbb8af14610342575f5ffd5b8063cb94d49e146102f6578063cec07cec14610309575f5ffd5b80637b4936c4146102735780637d66cdef14610286578063a874ec5914610299578063adf8252d146102d4575f5ffd5b806351d5d1c6116100e857806351d5d1c6146101f357806352aed634146102115780635c7b79f51461024b5780636ec917af14610260575f5ffd5b8063117a5b901461011957806323d18968146101985780632e0be39a146101b957806344c9af28146101c1575b5f5ffd5b61017c61012736600461129f565b60016020525f9081526040902080546002820154600383015460048401546005909401546001600160a01b0384169460ff600160a01b90950485169463ffffffff909316929091808216916101009091041687565b60405161018f97969594939291906112de565b60405180910390f35b6101ab6101a636600461138f565b610364565b60405190815260200161018f565b6101ab5f5481565b6101e66101cf36600461129f565b5f9081526001602052604090206005015460ff1690565b60405161018f9190611445565b6101fc61041a81565b60405163ffffffff909116815260200161018f565b61023b61021f36600461129f565b5f90815260016020526040902060050154610100900460ff1690565b604051901515815260200161018f565b61025e61025936600461129f565b610706565b005b61025e61026e36600461129f565b610813565b61025e610281366004611453565b6108d2565b61025e61029436600461149b565b6109df565b6102c26102a736600461129f565b5f90815260016020526040902054600160a01b900460ff1690565b60405160ff909116815260200161018f565b6101ab6102e236600461129f565b5f9081526001602052604090206004015490565b61025e61030436600461149b565b610be0565b6101fc61031736600461129f565b5f9081526001602052604090206003015463ffffffff1690565b6127116101ab565b6101fc6103e881565b6101ab61035036600461129f565b5f9081526001602052604090206002015490565b5f5f8260ff16116103bc5760405162461bcd60e51b815260206004820152601260248201527f496e76616c696420626f6172642073697a65000000000000000000000000000060448201526064015b60405180910390fd5b60ff8216861461040e5760405162461bcd60e51b815260206004820152601360248201527f426f6172642073697a65206d69736d617463680000000000000000000000000060448201526064016103b3565b8261045b5760405162461bcd60e51b815260206004820152600c60248201527f456d70747920636f6d6d6974000000000000000000000000000000000000000060448201526064016103b3565b5f8667ffffffffffffffff811115610475576104756114bb565b60405190808252806020026020018201604052801561049e578160200160208202803683370190505b5090505f5b8781101561054b576105028989838181106104c0576104c06114cf565b9050602002013588888080601f0160208091040260200160405190810160405280939291908181526020018383808284375f92019190915250610d9092505050565b828281518110610514576105146114cf565b602002602001018181525050610542828281518110610535576105356114cf565b6020026020010151610da6565b506001016104a3565b505f6105586103e8610db5565b905061056381610da6565b5061056e8133610dc7565b505f5f815461057c906114f7565b9182905550604080516101008101825233815260ff87166020820152908101849052606081018790525f6080820181905260a082018490529194509060c082019081525f60209182018190528581526001808352604091829020845181548686015160ff16600160a01b027fffffffffffffffffffffff0000000000000000000000000000000000000000009091166001600160a01b03909216919091171781559184015180519293610635939285019291019061124b565b50606082015181600201556080820151816003015f6101000a81548163ffffffff021916908363ffffffff16021790555060a0820151816004015560c0820151816005015f6101000a81548160ff02191690836002811115610699576106996112b6565b021790555060e09190910151600590910180549115156101000261ff001990921691909117905560405160ff85168152339084907fdd0abcdffc76581d11646898ee4d7f269ca1e0c0b622d072d343100dad83ecb19060200160405180910390a350509695505050505050565b5f81815260016020526040902080546001600160a01b0316331461075c5760405162461bcd60e51b815260206004820152600d60248201526c4e6f7420796f75722067616d6560981b60448201526064016103b3565b5f600582015460ff166002811115610776576107766112b6565b146107b05760405162461bcd60e51b815260206004820152600a6024820152694e6f742061637469766560b01b60448201526064016103b3565b6005810180546002919060ff19166001835b02179055506004810154600582015460405184927fb8cc611e879597954f8c8e4a122cda46327cbefbf2e42ea3734030687e88e4ee926108079260ff9091169061150f565b60405180910390a25050565b5f81815260016020526040902080546001600160a01b031633146108695760405162461bcd60e51b815260206004820152600d60248201526c4e6f7420796f75722067616d6560981b60448201526064016103b3565b5f600582015460ff166002811115610883576108836112b6565b146108bd5760405162461bcd60e51b815260206004820152600a6024820152694e6f742061637469766560b01b60448201526064016103b3565b6005810180546001919060ff191682806107c2565b5f83815260016020526040902080546001600160a01b031633146109285760405162461bcd60e51b815260206004820152600d60248201526c4e6f7420796f75722067616d6560981b60448201526064016103b3565b6002600582015460ff166002811115610943576109436112b6565b148061096757506001600582015460ff166002811115610965576109656112b6565b145b61099f5760405162461bcd60e51b8152602060048201526009602482015268139bdd08195b99195960ba1b60448201526064016103b3565b837f403f19ed10442511d95a4b4146ccc435952cb27bba78303b17a01ee8407cac7284846040516109d192919061152a565b60405180910390a250505050565b5f82815260016020526040812090600582015460ff166002811115610a0657610a066112b6565b14610a405760405162461bcd60e51b815260206004820152600a6024820152694e6f742061637469766560b01b60448201526064016103b3565b80546001600160a01b03163314610a895760405162461bcd60e51b815260206004820152600d60248201526c4e6f7420796f75722067616d6560981b60448201526064016103b3565b60018101548210610adc5760405162461bcd60e51b815260206004820152600d60248201527f496e76616c696420696e6465780000000000000000000000000000000000000060448201526064016103b3565b5f816001018381548110610af257610af26114cf565b905f5260205f20015490505f610b1182610b0c6001610db5565b610dd9565b60038401805491925063ffffffff909116905f610b2d83611577565b91906101000a81548163ffffffff021916908363ffffffff160217905550505f610b658460040154610b6061041a610db5565b610e07565b9050610b7081610da6565b50610b7b8133610dc7565b50600484018190556003840154604080518781526020810185905263ffffffff909216908201526060810182905286907f849f0a924d18328f05a7fa046c7259d3371fe18109bf9e0188a59f54219575839060800160405180910390a2505050505050565b5f82815260016020526040902080546001600160a01b03163314610c365760405162461bcd60e51b815260206004820152600d60248201526c4e6f7420796f75722067616d6560981b60448201526064016103b3565b6002600582015460ff166002811115610c5157610c516112b6565b1480610c7557506001600582015460ff166002811115610c7357610c736112b6565b145b610cad5760405162461bcd60e51b8152602060048201526009602482015268139bdd08195b99195960ba1b60448201526064016103b3565b805460408051602081018590526001600160a01b03831691810191909152600160a01b90910460ff1660608201525f9060800160405160208183030381529060405280519060200120905081600201548114610d4b5760405162461bcd60e51b815260206004820152600f60248201527f436f6d6d6974206d69736d61746368000000000000000000000000000000000060448201526064016103b3565b60058201805461ff00191661010017905560405184907f6ea81813eb74150321f70c7042dd54943d3d56e95b59bc3e7cd62a8f7622f98d906109d19086815260200190565b5f610d9d83836004610e35565b90505b92915050565b5f610db18230610f55565b5090565b5f610da08263ffffffff166004610fde565b5f610dd28383610f55565b5090919050565b5f82610deb57610de85f610db5565b92505b81610dfc57610df95f610db5565b91505b610d9d83835f61109b565b5f82610e1957610e165f610db5565b92505b81610e2a57610e275f610db5565b91505b610d9d83835f611196565b7f9e7b61f58c47dc699ac88507c4f5bb9f121c03808c5676a8078fe583e46497015460405163196d0b9b60e01b81525f917f9e7b61f58c47dc699ac88507c4f5bb9f121c03808c5676a8078fe583e4649700916001600160a01b039091169063196d0b9b90610eae9088903390899089906004016115ab565b6020604051808303815f875af1158015610eca573d5f5f3e3d5ffd5b505050506040513d601f19601f82011682018060405250810190610eee9190611605565b8154604051630f8e573b60e21b8152600481018390523360248201529193506001600160a01b031690633e395cec906044015f604051808303815f87803b158015610f37575f5ffd5b505af1158015610f49573d5f5f3e3d5ffd5b50505050509392505050565b5f7f9e7b61f58c47dc699ac88507c4f5bb9f121c03808c5676a8078fe583e46497008054604051635ca4b5b160e11b8152600481018690526001600160a01b03858116602483015292935091169063b9496b62906044015f604051808303815f87803b158015610fc3575f5ffd5b505af1158015610fd5573d5f5f3e3d5ffd5b50505050505050565b7f9e7b61f58c47dc699ac88507c4f5bb9f121c03808c5676a8078fe583e464970154604051639cd07acb60e01b81525f917f9e7b61f58c47dc699ac88507c4f5bb9f121c03808c5676a8078fe583e4649700916001600160a01b0390911690639cd07acb90611053908790879060040161161c565b6020604051808303815f875af115801561106f573d5f5f3e3d5ffd5b505050506040513d601f19601f820116820180604052508101906110939190611605565b949350505050565b5f5f82156110ae5750600160f81b6110b1565b505f5b7f9e7b61f58c47dc699ac88507c4f5bb9f121c03808c5676a8078fe583e46497015460405163f77f3f1d60e01b815260048101879052602481018690527fff00000000000000000000000000000000000000000000000000000000000000831660448201527f9e7b61f58c47dc699ac88507c4f5bb9f121c03808c5676a8078fe583e4649700916001600160a01b03169063f77f3f1d906064015b6020604051808303815f875af1158015611168573d5f5f3e3d5ffd5b505050506040513d601f19601f8201168201806040525081019061118c9190611605565b9695505050505050565b5f5f82156111a95750600160f81b6111ac565b505f5b7f9e7b61f58c47dc699ac88507c4f5bb9f121c03808c5676a8078fe583e464970154604051630afe14ad60e31b815260048101879052602481018690527fff00000000000000000000000000000000000000000000000000000000000000831660448201527f9e7b61f58c47dc699ac88507c4f5bb9f121c03808c5676a8078fe583e4649700916001600160a01b0316906357f0a5689060640161114c565b828054828255905f5260205f20908101928215611284579160200282015b82811115611284578251825591602001919060010190611269565b50610db19291505b80821115610db1575f815560010161128c565b5f602082840312156112af575f5ffd5b5035919050565b634e487b7160e01b5f52602160045260245ffd5b600381106112da576112da6112b6565b9052565b6001600160a01b038816815260ff871660208201526040810186905263ffffffff851660608201526080810184905260e0810161131e60a08301856112ca565b82151560c083015298975050505050505050565b5f5f83601f840112611342575f5ffd5b50813567ffffffffffffffff811115611359575f5ffd5b6020830191508360208260051b8501011115611373575f5ffd5b9250929050565b803560ff8116811461138a575f5ffd5b919050565b5f5f5f5f5f5f608087890312156113a4575f5ffd5b863567ffffffffffffffff8111156113ba575f5ffd5b6113c689828a01611332565b909750955050602087013567ffffffffffffffff8111156113e5575f5ffd5b8701601f810189136113f5575f5ffd5b803567ffffffffffffffff81111561140b575f5ffd5b89602082840101111561141c575f5ffd5b60209190910194509250604087013591506114396060880161137a565b90509295509295509295565b60208101610da082846112ca565b5f5f5f60408486031215611465575f5ffd5b83359250602084013567ffffffffffffffff811115611482575f5ffd5b61148e86828701611332565b9497909650939450505050565b5f5f604083850312156114ac575f5ffd5b50508035926020909101359150565b634e487b7160e01b5f52604160045260245ffd5b634e487b7160e01b5f52603260045260245ffd5b634e487b7160e01b5f52601160045260245ffd5b5f60018201611508576115086114e3565b5060010190565b8281526040810161152360208301846112ca565b9392505050565b602080825281018290525f8360408301825b8581101561156d57823563ffffffff8116808214611558575f5ffd5b8352506020928301929091019060010161153c565b5095945050505050565b5f63ffffffff821663ffffffff8103611592576115926114e3565b60010192915050565b605481106112da576112da6112b6565b8481526001600160a01b0384166020820152608060408201525f8351806080840152806020860160a085015e5f60a0828501015260a0601f19601f8301168401019150506115fc606083018461159b565b95945050505050565b5f60208284031215611615575f5ffd5b5051919050565b82815260408101611523602083018461159b56fea164736f6c634300081b000a",
  "linkReferences": {},
  "deployedLinkReferences": {}
}