{
  "_format": "hh-sol-artifact-1",
  "contractName": "ConfidentialMines",
  "sourceName": "contracts/ConfidentialMines.sol",
  "abi": [
    {
      "anonymous": false,
      "inputs": [
        {
          "indexed": true,
          "internalType": "uint256",
          "name": "gameId",
          "type": "uint256"
        },
        {
          "indexed": true,
          "internalType": "address",
          "name": "player",
          "type": "address"
        },
        {
          "indexed": false,
          "internalType": "uint8",
          "name": "boardSize",
          "type": "uint8"
        },
        {
          "indexed": false,
          "internalType": "bytes32",
          "name": "commitHash",
          "type": "bytes32"
        },
        {
          "indexed": false,
          "internalType": "bytes32",
          "name": "ciphertextCommit",
          "type": "bytes32"
        }
      ],
      "name": "GameCreated",
      "type": "event"
    },
    {
      "anonymous": false,
      "inputs": [
        {
          "indexed": true,
          "internalType": "uint256",
          "name": "gameId",
          "type": "uint256"
        },
        {
          "indexed": false,
          "internalType": "enum ConfidentialMines.State",
          "name": "state",
          "type": "uint8"
        }
      ],
      "name": "GameEnded",
      "type": "event"
    },
    {
      "anonymous": false,
      "inputs": [
        {
          "indexed": true,
          "internalType": "uint256",
          "name": "gameId",
          "type": "uint256"
        },
        {
          "indexed": false,
          "internalType": "uint256",
          "name": "seed",
          "type": "uint256"
        }
      ],
      "name": "SeedRevealed",
      "type": "event"
    },
    {
      "anonymous": false,
      "inputs": [
        {
          "indexed": true,
          "internalType": "uint256",
          "name": "gameId",
          "type": "uint256"
        },
        {
          "indexed": false,
          "internalType": "uint256",
          "name": "index",
          "type": "uint256"
        },
        {
          "indexed": false,
          "internalType": "ebool",
          "name": "isBomb",
          "type": "bytes32"
        },
        {
          "indexed": false,
          "internalType": "uint32",
          "name": "openedCount",
          "type": "uint32"
        }
      ],
      "name": "TilePicked",
      "type": "event"
    },
    {
      "anonymous": false,
      "inputs": [
        {
          "indexed": true,
          "internalType": "uint256",
          "name": "gameId",
          "type": "uint256"
        },
        {
          "indexed": false,
          "internalType": "address",
          "name": "verifier",
          "type": "address"
        }
      ],
      "name": "VerifierAllowed",
      "type": "event"
    },
    {
      "inputs": [
        {
          "internalType": "uint256",
          "name": "gameId",
          "type": "uint256"
        },
        {
          "internalType": "address",
          "name": "verifier",
          "type": "address"
        }
      ],
      "name": "allowVerifier",
      "outputs": [],
      "stateMutability": "nonpayable",
      "type": "function"
    },
    {
      "inputs": [
        {
          "internalType": "externalEuint64",
          "name": "encryptedPackedBoard",
          "type": "bytes32"
        },
        {
          "internalType": "bytes",
          "name": "proof",
          "type": "bytes"
        },
        {
          "internalType": "bytes32",
          "name": "commitHash",
          "type": "bytes32"
        },
        {
          "internalType": "bytes32",
          "name": "ciphertextCommit",
          "type": "bytes32"
        },
        {
          "internalType": "uint8",
          "name": "boardSize",
          "type": "uint8"
        }
      ],
      "name": "createGame",
      "outputs": [
        {
          "internalType": "uint256",
          "name": "gameId",
          "type": "uint256"
        }
      ],
      "stateMutability": "nonpayable",
      "type": "function"
    },
    {
      "inputs": [
        {
          "internalType": "uint256",
          "name": "gameId",
          "type": "uint256"
        }
      ],
      "name": "endGame",
      "outputs": [],
      "stateMutability": "nonpayable",
      "type": "function"
    },
    {
      "inputs": [],
      "name": "gameCounter",
      "outputs": [
        {
          "internalType": "uint256",
          "name": "",
          "type": "uint256"
        }
      ],
      "stateMutability": "view",
      "type": "function"
    },
    {
      "inputs": [
        {
          "internalType": "uint256",
          "name": "",
          "type": "uint256"
        }
      ],
      "name": "games",
      "outputs": [
        {
          "internalType": "address",
          "name": "player",
          "type": "address"
        },
        {
          "internalType": "uint8",
          "name": "boardSize",
          "type": "uint8"
        },
        {
          "internalType": "euint64",
          "name": "encryptedBoard",
          "type": "bytes32"
        },
        {
          "internalType": "bytes32",
          "name": "commitHash",
          "type": "bytes32"
        },
        {
          "internalType": "bytes32",
          "name": "ciphertextCommit",
          "type": "bytes32"
        },
        {
          "internalType": "uint32",
          "name": "openedCount",
          "type": "uint32"
        },
        {
          "internalType": "uint64",
          "name": "openedBitmap",
          "type": "uint64"
        },
        {
          "internalType": "enum ConfidentialMines.State",
          "name": "state",
          "type": "uint8"
        }
      ],
      "stateMutability": "view",
      "type": "function"
    },
    {
      "inputs": [
        {
          "internalType": "uint256",
          "name": "gameId",
          "type": "uint256"
        }
      ],
      "name": "getBoardSize",
      "outputs": [
        {
          "internalType": "uint8",
          "name": "",
          "type": "uint8"
        }
      ],
      "stateMutability": "view",
      "type": "function"
    },
    {
      "inputs": [
        {
          "internalType": "uint256",
          "name": "gameId",
          "type": "uint256"
        }
      ],
      "name": "getCiphertextCommit",
      "outputs": [
        {
          "internalType": "bytes32",
          "name": "",
          "type": "bytes32"
        }
      ],
      "stateMutability": "view",
      "type": "function"
    },
    {
      "inputs": [
        {
          "internalType": "uint256",
          "name": "gameId",
          "type": "uint256"
        }
      ],
      "name": "getCommit",
      "outputs": [
        {
          "internalType": "bytes32",
          "name": "",
          "type": "bytes32"
        }
      ],
      "stateMutability": "view",
      "type": "function"
    },
    {
      "inputs": [
        {
          "internalType": "uint256",
          "name": "gameId",
          "type": "uint256"
        }
      ],
      "name": "getOpenedBitmap",
      "outputs": [
        {
          "internalType": "uint64",
          "name": "",
          "type": "uint64"
        }
      ],
      "stateMutability": "view",
      "type": "function"
    },
    {
      "inputs": [
        {
          "internalType": "uint256",
          "name": "gameId",
          "type": "uint256"
        }
      ],
      "name": "getOpenedCount",
      "outputs": [
        {
          "internalType": "uint32",
          "name": "",
          "type": "uint32"
        }
      ],
      "stateMutability": "view",
      "type": "function"
    },
    {
      "inputs": [
        {
          "internalType": "uint256",
          "name": "gameId",
          "type": "uint256"
        }
      ],
      "name": "getState",
      "outputs": [
        {
          "internalType": "enum ConfidentialMines.State",
          "name": "",
          "type": "uint8"
        }
      ],
      "stateMutability": "view",
      "type": "function"
    },
    {
      "inputs": [
        {
          "internalType": "uint256",
          "name": "gameId",
          "type": "uint256"
        },
        {
          "internalType": "uint256",
          "name": "index",
          "type": "uint256"
        }
      ],
      "name": "pickTile",
      "outputs": [],
      "stateMutability": "nonpayable",
      "type": "function"
    },
    {
      "inputs": [],
      "name": "protocolId",
      "outputs": [
        {
          "internalType": "uint256",
          "name": "",
          "type": "uint256"
        }
      ],
      "stateMutability": "pure",
      "type": "function"
    },
    {
      "inputs": [
        {
          "internalType": "uint256",
          "name": "gameId",
          "type": "uint256"
        },
        {
          "internalType": "uint256",
          "name": "seed",
          "type": "uint256"
        }
      ],
      "name": "revealSeed",
      "outputs": [],
      "stateMutability": "nonpayable",
      "type": "function"
    }
  ],
  "bytecode": "0x608060405234801561000f575f5ffd5b5061018a6100ae604080516080810182525f80825260208201819052918101829052606081019190915250604080516080810182527350157cffd6bbfa2dece204a89ec419c23ef5755d815273cd3ab3bd6bcc0c0bf3e27912a92043e817b1cf69602082015273a02cda4ca3a71d7c46997716f4283aa851c2881291810191909152731364cbbf2cdf5032c47d8226a6f6fbd2afcdacac606082015290565b80517f9e7b61f58c47dc699ac88507c4f5bb9f121c03808c5676a8078fe583e464970080546001600160a01b03199081166001600160a01b039384161790915560208301517f9e7b61f58c47dc699ac88507c4f5bb9f121c03808c5676a8078fe583e46497018054831691841691909117905560408301517f9e7b61f58c47dc699ac88507c4f5bb9f121c03808c5676a8078fe583e46497028054831691841691909117905560608301517f9e7b61f58c47dc699ac88507c4f5bb9f121c03808c5676a8078fe583e46497038054909216921691909117905550565b6114ff806101975f395ff3fe608060405234801561000f575f5ffd5b50600436106100e5575f3560e01c8063a874ec5911610088578063d0399bb811610063578063d0399bb8146102ea578063da1f12ab146102fd578063e057697114610305578063fcdbb8af14610318575f5ffd5b8063a874ec591461025f578063cb94d49e1461029a578063cec07cec146102ad575f5ffd5b806358d5318d116100c357806358d5318d146101c8578063718e785c146102155780637d66cdef1461022857806390717c6b1461023d575f5ffd5b8063117a5b90146100e95780632e0be39a1461017957806344c9af281461018f575b5f5ffd5b61015c6100f736600461125c565b600160208190525f9182526040909120805491810154600282015460038301546004909301546001600160a01b0385169460ff600160a01b9091048116949163ffffffff81169167ffffffffffffffff64010000000083041691600160601b90041688565b60405161017098979695949392919061129b565b60405180910390f35b6101815f5481565b604051908152602001610170565b6101bb61019d36600461125c565b5f90815260016020526040902060040154600160601b900460ff1690565b6040516101709190611300565b6101fc6101d636600461125c565b5f90815260016020526040902060040154640100000000900467ffffffffffffffff1690565b60405167ffffffffffffffff9091168152602001610170565b610181610223366004611323565b61033a565b61023b6102363660046113bc565b61062b565b005b61018161024b36600461125c565b5f9081526001602052604090206003015490565b61028861026d36600461125c565b5f90815260016020526040902054600160a01b900460ff1690565b60405160ff9091168152602001610170565b61023b6102a83660046113bc565b6108c2565b6102d56102bb36600461125c565b5f9081526001602052604090206004015463ffffffff1690565b60405163ffffffff9091168152602001610170565b61023b6102f836600461125c565b610a65565b612711610181565b61023b6103133660046113dc565b610b8d565b61018161032636600461125c565b5f9081526001602052604090206002015490565b5f5f8260ff16118015610351575060408260ff1611155b6103a25760405162461bcd60e51b815260206004820152601260248201527f496e76616c696420626f6172642073697a65000000000000000000000000000060448201526064015b60405180910390fd5b836103ef5760405162461bcd60e51b815260206004820152600c60248201527f456d70747920636f6d6d697400000000000000000000000000000000000000006044820152606401610399565b8261043c5760405162461bcd60e51b815260206004820152601660248201527f456d7074792063697068657274657874436f6d6d6974000000000000000000006044820152606401610399565b5f61047c8888888080601f0160208091040260200160405190810160405280939291908181526020018383808284375f92019190915250610cfa92505050565b905061048781610d10565b506104928133610d1f565b505f5f81546104a090611429565b9182905550604080516101008101825233815260ff8616602082015290810183905260608101879052608081018690525f60a0820181905260c082018190529193509060e08201525f83815260016020818152604092839020845181549286015160ff16600160a01b027fffffffffffffffffffffff0000000000000000000000000000000000000000009093166001600160a01b03909116179190911781559183015182820155606083015160028301556080830151600383015560a083015160048301805460c086015167ffffffffffffffff16640100000000026bffffffffffffffffffffffff1990911663ffffffff909316929092179190911780825560e0850151926cff0000000000000000000000001990911690600160601b9084908111156105d1576105d1611273565b0217905550506040805160ff861681526020810188905290810186905233915083907ff8bea347161634e8bb98df64ed1ac03a6e654a8e57f13fe42e4aa45d0777c4de9060600160405180910390a3509695505050505050565b5f828152600160205260408120906004820154600160601b900460ff16600181111561065957610659611273565b146106a65760405162461bcd60e51b815260206004820152600a60248201527f4e6f7420616374697665000000000000000000000000000000000000000000006044820152606401610399565b80546001600160a01b031633146106ef5760405162461bcd60e51b815260206004820152600d60248201526c4e6f7420796f75722067616d6560981b6044820152606401610399565b8054600160a01b900460ff1682106107495760405162461bcd60e51b815260206004820152601260248201527f496e646578206f7574206f662072616e676500000000000000000000000000006044820152606401610399565b6004810154600167ffffffffffffffff8085169190911b916401000000009004821616156107b95760405162461bcd60e51b815260206004820152600e60248201527f416c7265616479206f70656e65640000000000000000000000000000000000006044820152606401610399565b6004820180546bffffffffffffffff000000001981166401000000009182900467ffffffffffffffff90811685821617909202179091555f906108019060019086161b610d31565b90505f610812846001015483610d47565b90505f61082f61082a836108255f610d31565b610d75565b610da3565b6004860180549192506001915f9061084e90849063ffffffff16611441565b82546101009290920a63ffffffff8181021990931691831602179091556004870154604080518a81526020810186905291909216918101919091528891507ffa57bc3134f4eeb41e453acfebd73da235bbc549c027b74a6489dc5f0dbcbcbb9060600160405180910390a250505050505050565b5f82815260016020526040902080546001600160a01b031633146109185760405162461bcd60e51b815260206004820152600d60248201526c4e6f7420796f75722067616d6560981b6044820152606401610399565b60016004820154600160601b900460ff16600181111561093a5761093a611273565b146109875760405162461bcd60e51b815260206004820152601060248201527f52657665616c20616674657220656e64000000000000000000000000000000006044820152606401610399565b805460408051602081018590526001600160a01b03831691810191909152600160a01b90910460ff1660608201525f9060800160405160208183030381529060405280519060200120905081600201548114610a255760405162461bcd60e51b815260206004820152600f60248201527f436f6d6d6974206d69736d6174636800000000000000000000000000000000006044820152606401610399565b837f6ea81813eb74150321f70c7042dd54943d3d56e95b59bc3e7cd62a8f7622f98d84604051610a5791815260200190565b60405180910390a250505050565b5f81815260016020526040902080546001600160a01b03163314610abb5760405162461bcd60e51b815260206004820152600d60248201526c4e6f7420796f75722067616d6560981b6044820152606401610399565b5f6004820154600160601b900460ff166001811115610adc57610adc611273565b14610b295760405162461bcd60e51b815260206004820152600d60248201527f416c726561647920656e646564000000000000000000000000000000000000006044820152606401610399565b6004810180546cff0000000000000000000000001916600160601b9081179182905560405184927ff0da077ba749b17fae9e0aa141a4ce662e2a41574315eb32ce4aaaa5b75850d392610b8192910460ff1690611300565b60405180910390a25050565b5f82815260016020526040902080546001600160a01b03163314610be35760405162461bcd60e51b815260206004820152600d60248201526c4e6f7420796f75722067616d6560981b6044820152606401610399565b60016004820154600160601b900460ff166001811115610c0557610c05611273565b14610c525760405162461bcd60e51b815260206004820152600f60248201527f416c6c6f7720616674657220656e6400000000000000000000000000000000006044820152606401610399565b6001600160a01b038216610ca85760405162461bcd60e51b815260206004820152600d60248201527f5a65726f207665726966696572000000000000000000000000000000000000006044820152606401610399565b610cb6816001015483610d1f565b506040516001600160a01b038316815283907f4d74c640d87f2931af81ff6f46c110ff9400c72f8de5b99b1d85613c09ebc2aa9060200160405180910390a2505050565b5f610d0783836005610dad565b90505b92915050565b5f610d1b8230610ecd565b5090565b5f610d2a8383610ecd565b5090919050565b5f610d0a8267ffffffffffffffff166005610f56565b5f82610d5957610d565f610d31565b92505b81610d6a57610d675f610d31565b91505b610d0783835f611013565b5f82610d8757610d845f610d31565b92505b81610d9857610d955f610d31565b91505b610d0783835f61110e565b5f610d0a826111c3565b7f9e7b61f58c47dc699ac88507c4f5bb9f121c03808c5676a8078fe583e46497015460405163196d0b9b60e01b81525f917f9e7b61f58c47dc699ac88507c4f5bb9f121c03808c5676a8078fe583e4649700916001600160a01b039091169063196d0b9b90610e2690889033908990899060040161146d565b6020604051808303815f875af1158015610e42573d5f5f3e3d5ffd5b505050506040513d601f19601f82011682018060405250810190610e6691906114c7565b8154604051630f8e573b60e21b8152600481018390523360248201529193506001600160a01b031690633e395cec906044015f604051808303815f87803b158015610eaf575f5ffd5b505af1158015610ec1573d5f5f3e3d5ffd5b50505050509392505050565b5f7f9e7b61f58c47dc699ac88507c4f5bb9f121c03808c5676a8078fe583e46497008054604051635ca4b5b160e11b8152600481018690526001600160a01b03858116602483015292935091169063b9496b62906044015f604051808303815f87803b158015610f3b575f5ffd5b505af1158015610f4d573d5f5f3e3d5ffd5b50505050505050565b7f9e7b61f58c47dc699ac88507c4f5bb9f121c03808c5676a8078fe583e464970154604051639cd07acb60e01b81525f917f9e7b61f58c47dc699ac88507c4f5bb9f121c03808c5676a8078fe583e4649700916001600160a01b0390911690639cd07acb90610fcb90879087906004016114de565b6020604051808303815f875af1158015610fe7573d5f5f3e3d5ffd5b505050506040513d601f19601f8201168201806040525081019061100b91906114c7565b949350505050565b5f5f82156110265750600160f81b611029565b505f5b7f9e7b61f58c47dc699ac88507c4f5bb9f121c03808c5676a8078fe583e46497015460405163d99882d560e01b815260048101879052602481018690527fff00000000000000000000000000000000000000000000000000000000000000831660448201527f9e7b61f58c47dc699ac88507c4f5bb9f121c03808c5676a8078fe583e4649700916001600160a01b03169063d99882d5906064015b6020604051808303815f875af11580156110e0573d5f5f3e3d5ffd5b505050506040513d601f19601f8201168201806040525081019061110491906114c7565b9695505050505050565b5f5f82156111215750600160f81b611124565b505f5b7f9e7b61f58c47dc699ac88507c4f5bb9f121c03808c5676a8078fe583e46497015460405163f77f3f1d60e01b815260048101879052602481018690527fff00000000000000000000000000000000000000000000000000000000000000831660448201527f9e7b61f58c47dc699ac88507c4f5bb9f121c03808c5676a8078fe583e4649700916001600160a01b03169063f77f3f1d906064016110c4565b5f807f9e7b61f58c47dc699ac88507c4f5bb9f121c03808c5676a8078fe583e46497006001810154604051630f51ccfb60e41b8152600481018690529192506001600160a01b03169063f51ccfb0906024016020604051808303815f875af1158015611231573d5f5f3e3d5ffd5b505050506040513d601f19601f8201168201806040525081019061125591906114c7565b9392505050565b5f6020828403121561126c575f5ffd5b5035919050565b634e487b7160e01b5f52602160045260245ffd5b6002811061129757611297611273565b9052565b5f610100820190506001600160a01b038a16825260ff8916602083015287604083015286606083015285608083015263ffffffff851660a083015267ffffffffffffffff841660c08301526112f360e0830184611287565b9998505050505050505050565b60208101610d0a8284611287565b803560ff8116811461131e575f5ffd5b919050565b5f5f5f5f5f5f60a08789031215611338575f5ffd5b86359550602087013567ffffffffffffffff811115611355575f5ffd5b8701601f81018913611365575f5ffd5b803567ffffffffffffffff81111561137b575f5ffd5b89602082840101111561138c575f5ffd5b6020919091019550935060408701359250606087013591506113b06080880161130e565b90509295509295509295565b5f5f604083850312156113cd575f5ffd5b50508035926020909101359150565b5f5f604083850312156113ed575f5ffd5b8235915060208301356001600160a01b038116811461140a575f5ffd5b809150509250929050565b634e487b7160e01b5f52601160045260245ffd5b5f6001820161143a5761143a611415565b5060010190565b63ffffffff8181168382160190811115610d0a57610d0a611415565b6054811061129757611297611273565b8481526001600160a01b0384166020820152608060408201525f8351806080840152806020860160a085015e5f60a0828501015260a0601f19601f8301168401019150506114be606083018461145d565b95945050505050565b5f602082840312156114d7575f5ffd5b5051919050565b82815260408101611255602083018461145d56fea164736f6c634300081b000a",
  "linkReferences": {},
  "deployedLinkReferences": {}
}